:020000040800F2
:1000000000500020F90F0008890F00088F0F00082A
:10001000950F00089B0F0008A10F000800000000CA
:10002000000000000000000000000000A70F000812
:10003000B30F000800000000BF0F0008CB0F00083E
:10004000411000084110000841100008411000084C
:10005000411000084110000841100008411000083C
:10006000411000084110000841100008411000082C
:10007000411000084110000841100008411000081C
:10008000411000084110000841100008411000080C
:1000900041100008411000084110000841100008FC
:1000A00041100008411000084110000841100008EC
:1000B000D90F000841100008411000084110000845
:1000C00041100008411000084110000841100008CC
:1000D00041100008411000084110000841100008BC
:1000E0004110000841100008411000080000000005
:1000F0000000000000000000000000000000000000
:0C01000000000000000000005FF808F1A3
:1001100010B5054C237833B9044B13B10448AFF341
:1001200000800123237010BD740000200000000037
:10013000D435000808B5034B1BB103490348AFF39E
:10014000008008BD0000000078000020D4350008C1
:1001500081F0004102E000BF83F0004330B54FEA78
:1001600041044FEA430594EA050F08BF90EA020FE5
:100170001FBF54EA000C55EA020C7FEA645C7FEA78
:10018000655C00F0E2804FEA5454D4EB5555B8BF9B
:100190006D420CDD2C4480EA020281EA030382EA0C
:1001A000000083EA010180EA020281EA0303362D9E
:1001B00088BF30BD11F0004F4FEA01314FF4801C71
:1001C0004CEA113102D0404261EB410113F0004F83
:1001D0004FEA03334CEA133302D0524263EB43033A
:1001E00094EA050F00F0A780A4F10104D5F1200ED8
:1001F0000DDB02FA0EFC22FA05F2801841F1000133
:1002000003FA0EF2801843FA05F359410EE0A5F106
:1002100020050EF1200E012A03FA0EFC28BF4CF037
:10022000020C43FA05F3C01851EBE37101F00045ED
:1002300007D54FF0000EDCF1000C7EEB00006EEBFA
:100240000101B1F5801F1BD3B1F5001F0CD3490884
:100250005FEA30004FEA3C0C04F101044FEA4452DB
:1002600012F5800F80F09A80BCF1004F08BF5FEA62
:10027000500C50F1000041EB045141EA050130BD42
:100280005FEA4C0C404141EB0101013C28BFB1F554
:10029000801FE9D291F0000F04BF01460020B1FA9F
:1002A00081F308BF2033A3F10B03B3F120020CDA72
:1002B0000C3208DD02F1140CC2F10C0201FA0CF050
:1002C00021FA02F10CE002F11402D8BFC2F1200CB5
:1002D00001FA02F120FA0CFCDCBF41EA0C0190406B
:1002E000E41AA2BF01EB0451294330BD6FEA0404B4
:1002F0001F3C1CDA0C340EDC04F11404C4F120029F
:1003000020FA04F001FA02F340EA030021FA04F3B0
:1003100045EA030130BDC4F10C04C4F1200220FA07
:1003200002F001FA04F340EA0300294630BD21FA45
:1003300004F0294630BD94F0000F83F4801306BF0B
:1003400081F480110134013D4EE77FEA645C18BFFF
:100350007FEA655C29D094EA050F08BF90EA020F96
:1003600005D054EA000C04BF1946104630BD91EA8E
:10037000030F1EBF0021002030BD5FEA545C05D191
:100380004000494128BF41F0004130BD14F58004D0
:100390003CBF01F5801130BD01F0004545F0FE4144
:1003A00041F470014FF0000030BD7FEA645C1ABF79
:1003B000194610467FEA655C1CBF0B46024650EAB0
:1003C000013406BF52EA033591EA030F41F40021DC
:1003D00030BD00BF90F0000F04BF0021704730B562
:1003E0004FF4806404F132044FF000054FF0000137
:1003F00050E700BF90F0000F04BF0021704730B5F8
:100400004FF4806404F1320410F0004548BF4042CC
:100410004FF000013EE700BF42004FEAE2014FEA21
:1004200031014FEA02701FBF12F07F4393F07F4FFC
:1004300081F06051704732F07F4208BF704793F0FF
:100440007F4F04BF41F40021704730B54FF4607412
:1004500001F0004521F000411CE700BF50EA010215
:1004600008BF704730B54FF000050AE050EA0102BE
:1004700008BF704730B511F0004502D5404261EB2E
:1004800041014FF4806404F132045FEA915C3FF46F
:10049000D8AE4FF003025FEADC0C18BF03325FEA0C
:1004A000DC0C18BF033202EBDC02C2F1200300FABD
:1004B00003FC20FA02F001FA03FE40EA0E0021FAE2
:1004C00002F11444BDE600BF70B54FF0FF0C4CF4D0
:1004D000E06C1CEA11541DBF1CEA135594EA0C0F82
:1004E00095EA0C0F00F0DEF82C4481EA030621EABD
:1004F0004C5123EA4C5350EA013518BF52EA0335F8
:1005000041F4801143F4801338D0A0FB02CE4FF0A9
:100510000005E1FB02E506F00042E0FB03E54FF0D9
:100520000006E1FB03569CF0000F18BF4EF0010ED1
:10053000A4F1FF04B6F5007F64F5407404D25FEACD
:100540004E0E6D4146EB060642EAC62141EA555180
:100550004FEAC52040EA5E504FEACE2EB4F1FD0CC2
:1005600088BFBCF5E06F1ED8BEF1004F08BF5FEA40
:10057000500E50F1000041EB045170BD06F00046F2
:1005800046EA010140EA020081EA0301B4EB5C049F
:10059000C2BFD4EB0C0541EA045170BD41F4801197
:1005A0004FF0000E013C00F3AB8014F1360FDEBFBC
:1005B000002001F0004170BDC4F10004203C35DA98
:1005C0000C341BDC04F11404C4F1200500FA05F31B
:1005D00020FA04F001FA05F240EA020001F00042BC
:1005E00021F0004110EBD37021FA04F642EB060132
:1005F0005EEA430E08BF20EAD37070BDC4F10C045C
:10060000C4F1200500FA04F320FA05F001FA04F21F
:1006100040EA020001F0004110EBD37041F100010B
:100620005EEA430E08BF20EAD37070BDC4F1200516
:1006300000FA05F24EEA020E20FA04F301FA05F27E
:1006400043EA020321FA04F001F0004121FA04F226
:1006500020EA020000EBD3705EEA430E08BF20EAF6
:10066000D37070BD94F0000F0FD101F00046400030
:1006700041EB010111F4801F08BF013CF7D041EAB2
:10068000060195F0000F18BF704703F000465200B6
:1006900043EB030313F4801F08BF013DF7D043EA87
:1006A0000603704794EA0C0F0CEA135518BF95EA3D
:1006B0000C0F0CD050EA410618BF52EA4306D1D1C4
:1006C00081EA030101F000414FF0000070BD50EAE3
:1006D000410606BF1046194652EA430619D094EA6D
:1006E0000C0F02D150EA013613D195EA0C0F05D157
:1006F00052EA03361CBF104619460AD181EA0301AB
:1007000001F0004141F0FE4141F470014FF0000062
:1007100070BD41F0FE4141F4780170BD70B54FF0FD
:10072000FF0C4CF4E06C1CEA11541DBF1CEA13557D
:1007300094EA0C0F95EA0C0F00F0A7F8A4EB05045F
:1007400081EA030E52EA03354FEA013100F0888056
:100750004FEA03334FF0805545EA131343EA12631F
:100760004FEA022245EA111545EA10654FEA0026D4
:100770000EF000419D4208BF964244F1FD0404F58D
:10078000407402D25B084FEA3202B61A65EB0305E9
:100790005B084FEA32024FF480104FF4002CB6EBA6
:1007A000020E75EB030E22BFB61A754640EA0C0026
:1007B0005B084FEA3202B6EB020E75EB030E22BF66
:1007C000B61A754640EA5C005B084FEA3202B6EBA7
:1007D000020E75EB030E22BFB61A754640EA9C0066
:1007E0005B084FEA3202B6EB020E75EB030E22BF36
:1007F000B61A754640EADC0055EA060E18D04FEAF4
:10080000051545EA16754FEA06164FEAC30343EA93
:1008100052734FEAC2025FEA1C1CC0D111F4801F60
:100820000BD141EA00014FF000004FF0004CB6E759
:1008300011F4801F04BF01430020B4F1FD0C88BFF8
:10084000BCF5E06F3FF6AFAEB5EB030C04BFB6EB03
:10085000020C5FEA500C50F1000041EB045170BDF6
:100860000EF0004E4EEA113114EB5C04C2BFD4EB23
:100870000C0541EA045170BD41F480114FF0000EA7
:10088000013C90E645EA060E8DE60CEA135594EA23
:100890000C0F08BF95EA0C0F3FF43BAF94EA0C0F26
:1008A0000AD150EA01347FF434AF95EA0C0F7FF49B
:1008B00025AF104619462CE795EA0C0F06D152EAEF
:1008C00003353FF4FDAE1046194622E750EA4106D3
:1008D00018BF52EA43067FF4C5AE50EA41047FF4E4
:1008E0000DAF52EA43057FF4EBAE12E74FF0FF3C49
:1008F00006E000BF4FF0010C02E000BF4FF0010C1A
:100900004DF804CD4FEA410C7FEA6C5C4FEA430C92
:1009100018BF7FEA6C5C1BD001B050EA410C0CBFE1
:1009200052EA430C91EA030F02BF90EA020F002043
:10093000704710F1000F91EA030F58BF994208BFAA
:1009400090422CBFD8176FEAE37040F00100704767
:100950004FEA410C7FEA6C5C02D150EA013C07D1BE
:100960004FEA430C7FEA6C5CD6D152EA033CD3D009
:100970005DF8040B704700BF8446104662468C4603
:100980001946634600E000BF01B5FFF7B7FF002836
:1009900048BF10F1000F01BD4DF808EDFFF7F4FF5F
:1009A0000CBF012000205DF808FB00BF4DF808EDEA
:1009B000FFF7EAFF34BF012000205DF808FB00BF0D
:1009C0004DF808EDFFF7E0FF94BF012000205DF82F
:1009D00008FB00BF4DF808EDFFF7CEFF94BF0120E4
:1009E00000205DF808FB00BF4DF808EDFFF7C4FFDD
:1009F00034BF012000205DF808FB00BF4FEA410C26
:100A00007FEA6C5C02D150EA013C0AD14FEA430C08
:100A10007FEA6C5C02D152EA033C02D14FF0000045
:100A200070474FF0010070474A0011D212F50012D2
:100A300011D20DD56FF47873B3EB62520ED44FEA36
:100A4000C12343F0004343EA505323FA02F07047B6
:100A50004FF00000704750EA013002D14FF0FF30F4
:100A600070474FF00000704780B582B000AF0023A0
:100A70007B608EE04B4A7B68134419784A4A7B6856
:100A800013440A461A70494A7B6813441978454A48
:100A90007B6813440A461A707868FFF7ABFC02467D
:100AA0000B464FF000004FF0804101F003FE4FF085
:100AB00000023F4BFFF708FD02460B461046194661
:100AC000FFF7B2FF03469BB219463A4800F0AEFD6D
:100AD00003461946354A7B6813440A461A70334A5E
:100AE0007B6813441A782F497B680B441B789A4221
:100AF0004CD12C4A7B6813441A782B497B680B44F1
:100B00001B789A4242D12C4A7B6813441A782649B2
:100B10007B680B441B789A4219D0234A7B681344A4
:100B20001978254A7B6813440A461A70224A7B6862
:100B300013441B78002B29D1204A7B68012142F8FD
:100B400023101F4A7B68642142F823101EE01A4AD2
:100B50007B6813441B78002B18D1194A7B6852F824
:100B600023305A1E16497B6841F82320144A7B68BB
:100B700052F82330002B09DC124A7B68012142F82D
:100B800023100D4A7B68134400221A707B680133DE
:100B90007B607B68032B7FF76DAF00BF00BF08371A
:100BA000BD4680BD980000209C00002094000020DD
:100BB0000000B0400008014090000020F00000203C
:100BC000D0000020E000002080B500AF00F03AFA2D
:100BD00000F012F800F04CF800F096F8044801F02C
:100BE0008DF901224021034800F037FDF9E700BFED
:100BF000000100200008014080B590B000AF07F16F
:100C0000180328220021184601F04CFD3B1D00224C
:100C10001A605A609A60DA601A610223BB6101238C
:100C2000BB621023FB6200237B6307F118031846A5
:100C300000F02CFD0346002B01D000F0CBF80F2371
:100C40007B600023BB600023FB6000233B6100232B
:100C50007B613B1D0021184600F098FF0346002BE6
:100C600001D000F0B7F800BF4037BD4680BD00009E
:100C700080B586B000AF07F1080300221A605A6001
:100C80009A60DA603B4600221A605A601D4B4FF0B2
:100C900080421A601B4B41F63F725A60194B00228A
:100CA0009A60184B0922DA60164B00221A61154B24
:100CB00000229A61134801F0D1F80346002B01D0BD
:100CC00000F088F84FF48053BB6007F10803194621
:100CD0000C4801F06DFA0346002B01D000F07AF8C1
:100CE00000233B6000237B603B461946054801F02A
:100CF0003FFC0346002B01D000F06CF800BF183712
:100D0000BD4680BD0001002080B586B000AF07F170
:100D1000080300221A605A609A60DA60244B9B69CB
:100D2000234A43F004039361214B9B6903F00403BE
:100D30007B607B681E4B9B691D4A43F008039361EF
:100D40001B4B9B6903F008033B603B68002260215A
:100D5000184800F082FC2023BB600123FB600123C4
:100D60003B6102237B6107F108031946114800F03B
:100D7000D9FA4023BB600123FB6000233B610223BF
:100D80007B6107F1080319460A4800F0CBFA4FF4DB
:100D90007043BB600023FB6001233B6107F1080344
:100DA0001946054800F0BEFA00BF1837BD4680BDA1
:100DB0000010024000080140000C014080B582B0E4
:100DC00000AF786000F00CF8FFF74EFE00BF083768
:100DD000BD4680BD80B400AF72B600BFFEE7000024
:100DE00080B400AF314B1B68002B0BDD2F4B1B6811
:100DF000013B2E4A13602D4B1B68002B02DC2C4B51
:100E000001221A602B4B1B68002B0BDD294B1B6842
:100E1000013B284A1360274B1B68002B02DC264B42
:100E200001221A60254B1B68002B0BDD234B1B682E
:100E3000013B224A1360214B1B68002B02DC204B34
:100E400001221A601F4B1B68002B0BDD1D4B1B681A
:100E5000013B1C4A13601B4B1B68002B02DC1A4B26
:100E600001221A60194B1B68002B0BDD174B1B6806
:100E7000013B164A1360154B1B68002B02DC144B18
:100E800001221A60134B1B68002B0BDD114B1B68F2
:100E9000013B104A13600F4B1B68002B02DC0E4B0A
:100EA00001221A6000BFBD4680BC7047A40000202C
:100EB000A0000020AC000020A8000020B40000200A
:100EC000B0000020BC000020B8000020C4000020BA
:100ED000C0000020CC000020C800002080B485B0F5
:100EE00000AF154B9B69144A43F001039361124B09
:100EF0009B6903F00103BB60BB680F4BDB690E4AC3
:100F000043F08053D3610C4BDB6903F080537B606B
:100F10007B680A4B5B68FB60FB6823F0E063FB6067
:100F2000FB6843F08063FB60044AFB68536000BFCA
:100F30001437BD4680BC70470010024000000140DD
:100F400080B584B000AF78607B681B68B3F1804FD8
:100F500013D10C4BDB690B4A43F00103D361094BFE
:100F6000DB6903F00103FB60FB68002200211C2009
:100F700000F0A1F91C2000F0BAF900BF1037BD46FF
:100F800080BD00BF0010024080B400AFFEE780B417
:100F900000AFFEE780B400AFFEE780B400AFFEE72D
:100FA00080B400AFFEE780B400AF00BFBD4680BC98
:100FB000704780B400AF00BFBD4680BC704780B4AE
:100FC00000AF00BFBD4680BC704780B500AF00F0E9
:100FD0007FF800BF80BD000080B500AF024800F080
:100FE000DFFF00BF80BD00BF0001002080B400AF64
:100FF00000BFBD4680BC70470C480D490D4A002318
:1010000002E0D458C4500433C4188C42F9D30A4ABD
:101010000A4C002301E013600432A242FBD3FFF725
:10102000E5FF01F01BFBFFF7CFFD7047000000203C
:101030007400002060360008740000204C0100207D
:10104000FEE7000080B500AF084B1B68074A43F07D
:1010500010031360032000F023F90F2000F008F8BC
:10106000FFF73CFF0023184680BD00BF0020024070
:1010700080B582B000AF7860124B1A68124B1B78B3
:1010800019464FF47A73B3FBF1F3B2FBF3F318464E
:1010900000F03BF90346002B01D001230EE07B68F2
:1010A0000F2B0AD8002279684FF0FF3000F003F9C7
:1010B000064A7B681360002300E0012318460837C6
:1010C000BD4680BD00000020080000200400002074
:1010D00080B400AF054B1B781A46054B1B681344C0
:1010E000034A136000BFBD4680BC70470800002063
:1010F0004801002080B400AF024B1B681846BD4673
:1011000080BC70474801002080B485B000AF786093
:101110007B6803F00703FB600C4BDB68BB60BA68BD
:101120004FF6FF031340BB60FB681A02BB68134312
:1011300043F0BF6343F40033BB60044ABB68D36031
:1011400000BF1437BD4680BC704700BF00ED00E013
:1011500080B400AF044BDB681B0A03F0070318469A
:10116000BD4680BC704700BF00ED00E080B483B096
:1011700000AF0346FB7197F90730002B0BDBFB79BF
:1011800003F01F02064997F907305B09012000FAB6
:1011900002F241F8232000BF0C37BD4680BC7047E7
:1011A00000E100E080B483B000AF03463960FB711A
:1011B00097F90730002B0ADB3B68DAB20C4997F944
:1011C00007301201D2B20B4483F800230AE03B68D7
:1011D000DAB20849FB7903F00F03043B1201D2B2E3
:1011E0000B441A7600BF0C37BD4680BC704700BF69
:1011F00000E100E000ED00E080B489B000AFF860ED
:10120000B9607A60FB6803F00703FB61FB69C3F117
:101210000703042B28BF0423BB61FB690433062B9F
:1012200002D9FB69033B00E000237B614FF0FF32F2
:10123000BB6902FA03F3DA43BB681A407B699A4040
:101240004FF0FF317B6901FA03F3D9437B680B4010
:10125000134318462437BD4680BC704780B582B022
:1012600000AF78607B68013BB3F1807F01D301233D
:101270000FE00A4A7B68013B53600F214FF0FF30BB
:10128000FFF790FF054B00229A60044B07221A607B
:10129000002318460837BD4680BD00BF10E000E0BF
:1012A00080B582B000AF78607868FFF72DFF00BF8F
:1012B0000837BD4680BD80B586B000AF0346B96033
:1012C0007A60FB7300237B61FFF742FF78617A68E5
:1012D000B9687869FFF790FF024697F90F30114619
:1012E0001846FFF75FFF00BF1837BD4680BD80B5C9
:1012F00082B000AF0346FB7197F907301846FFF73D
:1013000035FF00BF0837BD4680BD80B582B000AF55
:1013100078607868FFF7A2FF034618460837BD4695
:1013200080BD000080B48BB000AF786039600023CE
:101330007B6200233B6269E101227B6A02FA03F3CC
:10134000FB613B681B68FA691340BB61BA69FB69C2
:101350009A4240F058813B685B689A4A93425ED05B
:10136000984A934275D8984A934258D0964A9342E5
:101370006FD8964A934252D0944A934269D8944A7D
:1013800093424CD0924A934263D8924A934246D0B9
:10139000904A93425DD8122B2AD8122B59D801A219
:1013A00052F823F01F140008F91300080B1400086A
:1013B0004D14000853140008531400085314000877
:1013C0005314000853140008531400085314000861
:1013D0005314000853140008531400085314000851
:1013E00053140008531400080114000815140008D1
:1013F000794A934213D02CE03B68DB683B6229E0DA
:101400003B68DB6804333B6224E03B68DB680833FD
:101410003B621FE03B68DB680C333B621AE03B68D1
:101420009B68002B02D104233B6213E03B689B685E
:10143000012B05D108233B627B68FA691A6109E038
:1014400008233B627B68FA695A6103E000233B6230
:1014500000E000BFBB69FF2B01D87B6801E07B681F
:1014600004337B61BB69FF2B02D87B6A9B0002E0DF
:101470007B6A083B9B003B617B691A680F213B69D3
:1014800001FA03F3DB431A40396A3B6901FA03F3BB
:101490001A437B691A603B685B6803F08053002B3A
:1014A00000F0B1804D4B9B694C4A43F001039361BE
:1014B0004A4B9B6903F00103BB60BB68484A7B6AE7
:1014C0009B08023352F82330FB607B6A03F003036E
:1014D0009B000F2202FA03F3DB43FA681340FB6020
:1014E0007B68404A934213D07B683F4A93420DD0B9
:1014F0007B683E4A934207D07B683D4A934201D1C4
:10150000032306E0042304E0022302E0012300E0B9
:1015100000237A6A02F0030292009340FA681343B0
:10152000FB602F497B6A9B080233FA6841F823204D
:101530003B685B6803F48033002B06D02D4B1A68A0
:101540002C49BB6913430B6006E02A4B1A68BB6940
:10155000DB43284913400B603B685B6803F40033AE
:10156000002B06D0234B5A682249BB6913434B60BA
:1015700006E0204B5A68BB69DB431E4913404B60B1
:101580003B685B6803F48013002B06D0194B9A6804
:101590001849BB6913438B6006E0164B9A68BB6918
:1015A000DB43144913408B603B685B6803F4001312
:1015B000002B21D00F4BDA680E49BB691343CB6077
:1015C00021E000BF000032100000311000002210A6
:1015D0000000211000001210000011100010024045
:1015E0000000014000080140000C014000100140D3
:1015F00000140140000401400B4BDA68BB69DB4377
:1016000009491340CB607B6A01337B623B681A68EF
:101610007B6A22FA03F3002B7FF48EAE00BF00BF7B
:101620002C37BD4680BC70470004014080B485B0B3
:1016300000AF78600B467B807B689A687B8813409C
:10164000002B02D00123FB7301E00023FB73FB7B23
:1016500018461437BD4680BC704780B483B000AFD5
:1016600078600B467B8013467B707B78002B03D021
:101670007A887B681A6103E07B881A047B681A61A8
:1016800000BF0C37BD4680BC7047000080B586B0F7
:1016900000AF78607B68002B01D101236CE27B688E
:1016A0001B6803F00103002B00F08780924B5B68FE
:1016B00003F00C03042B0CD08F4B5B6803F00C037E
:1016C000082B12D18C4B5B6803F48033B3F5803F59
:1016D0000BD1894B1B6803F40033002B6CD07B6863
:1016E0005B68002B68D1012346E27B685B68B3F539
:1016F000803F06D1804B1B687F4A43F480331360E0
:101700002EE07B685B68002B0CD17B4B1B687A4A10
:1017100023F480331360784B1B68774A23F48023CB
:1017200013601DE07B685B68B3F5A02F0CD1724B92
:101730001B68714A43F4802313606F4B1B686E4A29
:1017400043F4803313600BE06B4B1B686A4A23F44D
:1017500080331360684B1B68674A23F4802313604F
:101760007B685B68002B13D0FFF7C4FC386108E08E
:10177000FFF7C0FC02463B69D31A642B01D903234F
:10178000FAE15D4B1B6803F40033002BF0D014E04A
:10179000FFF7B0FC386108E0FFF7ACFC02463B699C
:1017A000D31A642B01D90323E6E1534B1B6803F4DE
:1017B0000033002BF0D100E000BF7B681B6803F012
:1017C0000203002B63D04C4B5B6803F00C03002B2F
:1017D0000BD0494B5B6803F00C03082B1CD1464B24
:1017E0005B6803F48033002B16D1434B1B6803F076
:1017F0000203002B05D07B681B69012B01D001235C
:10180000BAE13D4B1B6823F0F8027B685B69DB00A3
:10181000394913430B603AE07B681B69002B20D0E9
:10182000364B01221A60FFF765FC386108E0FFF7CC
:1018300061FC02463B69D31A022B01D903239BE1C9
:101840002D4B1B6803F00203002BF0D02A4B1B68C2
:1018500023F0F8027B685B69DB00274913430B60C8
:1018600015E0264B00221A60FFF744FC386108E0BF
:10187000FFF740FC02463B69D31A022B01D9032330
:101880007AE11D4B1B6803F00203002BF0D17B684B
:101890001B6803F00803002B3AD07B689B69002B80
:1018A00019D0174B01221A60FFF724FC386108E0B9
:1018B000FFF720FC02463B69D31A022B01D9032310
:1018C0005AE10D4B5B6A03F00203002BF0D00120BC
:1018D00000F0A6FA1CE00A4B00221A60FFF70AFC8F
:1018E00038610FE0FFF706FC02463B69D31A022B72
:1018F00008D9032340E100BF00100240000042422B
:10190000800442429E4B5B6A03F00203002BE9D144
:101910007B681B6803F00403002B00F0A680002303
:10192000FB75974BDB6903F08053002B0DD1944B73
:10193000DB69934A43F08053D361914BDB6903F039
:101940008053BB60BB680123FB758E4B1B6803F49F
:101950008073002B18D18B4B1B688A4A43F4807329
:101960001360FFF7C7FB386108E0FFF7C3FB0246CF
:101970003B69D31A642B01D90323FDE0814B1B681B
:1019800003F48073002BF0D07B68DB68012B06D159
:101990007B4B1B6A7A4A43F0010313622DE07B689C
:1019A000DB68002B0CD1764B1B6A754A23F00103D0
:1019B0001362734B1B6A724A23F0040313621CE028
:1019C0007B68DB68052B0CD16D4B1B6A6C4A43F0BE
:1019D000040313626A4B1B6A694A43F001031362F2
:1019E0000BE0674B1B6A664A23F001031362644BEA
:1019F0001B6A634A23F0040313627B68DB68002BD5
:101A000015D0FFF777FB38610AE0FFF773FB02465A
:101A10003B69D31A41F28832934201D90323ABE0E8
:101A2000574B1B6A03F00203002BEED014E0FFF7C4
:101A300061FB38610AE0FFF75DFB02463B69D31AA0
:101A400041F28832934201D9032395E04C4B1B6A43
:101A500003F00203002BEED1FB7D012B05D1484B97
:101A6000DB69474A23F08053D3617B68DB69002B35
:101A700000F08180424B5B6803F00C03082B61D0BF
:101A80007B68DB69022B46D13F4B00221A60FFF7CF
:101A900031FB386108E0FFF72DFB02463B69D31AA2
:101AA000022B01D9032367E0354B1B6803F0007359
:101AB000002BF0D17B681B6AB3F5803F08D1304B17
:101AC0005B6823F400327B689B682D4913434B60AD
:101AD0002B4B5B6823F474127B68196A7B685B6A22
:101AE0000B43274913434B60274B01221A60FFF732
:101AF00001FB386108E0FFF7FDFA02463B69D31AA3
:101B0000022B01D9032337E01D4B1B6803F0007340
:101B1000002BF0D02FE01C4B00221A60FFF7EAFAEE
:101B2000386108E0FFF7E6FA02463B69D31A022B58
:101B300001D9032320E0124B1B6803F00073002B34
:101B4000F0D118E07B68DB69012B01D1012313E0A0
:101B50000B4B5B68FB60FB6803F480327B681B6A9D
:101B60009A4206D1FB6803F470127B685B6A9A4262
:101B700001D0012300E0002318461837BD4680BD80
:101B800000100240007000406000424280B584B006
:101B900000AF786039607B68002B01D10123D0E071
:101BA0006A4B1B6803F007033A689A4210D9674BE7
:101BB0001B6823F0070265493B6813430B60634BC6
:101BC0001B6803F007033A689A4201D00123B8E08A
:101BD0007B681B6803F00203002B20D07B681B6826
:101BE00003F00403002B05D0594B5B68584A43F4BB
:101BF000E06353607B681B6803F00803002B05D08B
:101C0000534B5B68524A43F460535360504B5B68DC
:101C100023F0F0027B689B684D4913434B607B685F
:101C20001B6803F00103002B40D07B685B68012B2D
:101C300007D1474B1B6803F40033002B15D1012358
:101C40007FE07B685B68022B07D1414B1B6803F088
:101C50000073002B09D1012373E03D4B1B6803F097
:101C60000203002B01D101236BE0394B5B6823F0A9
:101C700003027B685B68364913434B60FFF73AFA0F
:101C8000F8600AE0FFF736FA0246FB68D31A41F221
:101C90008832934201D9032353E02D4B5B6803F054
:101CA0000C027B685B689B009A42EBD1274B1B6858
:101CB00003F007033A689A4210D2244B1B6823F0C2
:101CC000070222493B6813430B60204B1B6803F05B
:101CD00007033A689A4201D0012332E07B681B680F
:101CE00003F00403002B08D0194B5B6823F4E06277
:101CF0007B68DB68164913434B607B681B6803F005
:101D00000803002B09D0124B5B6823F460527B68F8
:101D10001B69DB000E4913434B6000F021F80246BB
:101D20000B4B5B681B0903F00F030A49CB5C22FADB
:101D300003F3094A1360094B1B681846FFF798F92B
:101D4000002318461037BD4680BD00BF002002406A
:101D500000100240003600080000002004000020AF
:101D600090B48AB000AF2A4B3C1D0FCB84E80F0023
:101D700040F201233B800023FB610023BB61002371
:101D80007B6200237B6100233B62224B5B68FB612B
:101D9000FB6903F00C03042B02D0082B03D02DE0C9
:101DA0001D4B3B622DE0FB699B0C03F00F0307F119
:101DB0002802134413F8243C7B61FB6903F480334D
:101DC000002B13D0134B5B685B0C03F0010307F18E
:101DD0002802134413F8283CBB617B690E4A02FBBE
:101DE00003F2BB69B2FBF3F37B6204E07B690B4A4D
:101DF00002FB03F37B627B6A3B6202E0064B3B62C1
:101E000000BF3B6A18462837BD4690BC704700BFEC
:101E1000F03500080010024000127A0000093D0071
:101E200080B485B000AF78600A4B1B680A4AA2FBF9
:101E300003235B0A7A6802FB03F3FB6000BFFB68C5
:101E40005A1EFA60002BF9D100BF00BF1437BD46FF
:101E500080BC704700000020D34D621080B582B076
:101E600000AF78607B68002B01D1012341E07B68E3
:101E700093F83D30DBB2002B06D17B68002283F85B
:101E80003C207868FFF75CF87B68022283F83D20ED
:101E90007B681A687B6804331946104600F070FAB4
:101EA0007B68012283F846207B68012283F83E206C
:101EB0007B68012283F83F207B68012283F8402061
:101EC0007B68012283F841207B68012283F842204D
:101ED0007B68012283F843207B68012283F8442039
:101EE0007B68012283F845207B68012283F83D202E
:101EF000002318460837BD4680BD000080B485B079
:101F000000AF78607B6893F83D30DBB2012B01D0E5
:101F100001233AE07B68022283F83D207B681B683E
:101F2000DA687B681B6842F00102DA607B681B6834
:101F3000184A93420ED07B681B68B3F1804F09D0DA
:101F40007B681B68144A934204D07B681B68134A61
:101F5000934211D17B681B689B6803F00703FB6009
:101F6000FB68062B10D07B681B681A687B681B68AF
:101F700042F001021A6007E07B681B681A687B6800
:101F80001B6842F001021A60002318461437BD4650
:101F900080BC7047002C0140000400400008004055
:101FA00080B582B000AF78607B681B681B6903F066
:101FB0000203022B22D17B681B68DB6803F002035B
:101FC000022B1BD17B681B686FF002021A617B68D1
:101FD00001221A777B681B689B6903F00303002BBF
:101FE00003D0786800F0B1F905E0786800F0A4F952
:101FF000786800F0B3F97B6800221A777B681B6869
:102000001B6903F00403042B22D17B681B68DB6887
:1020100003F00403042B1BD17B681B686FF00402E0
:102020001A617B6802221A777B681B689B6903F43C
:102030004073002B03D0786800F087F905E07868DA
:1020400000F07AF9786800F089F97B6800221A7745
:102050007B681B681B6903F00803082B22D17B688F
:102060001B68DB6803F00803082B1BD17B681B6827
:102070006FF008021A617B6804221A777B681B687C
:10208000DB6903F00303002B03D0786800F05DF9EF
:1020900005E0786800F050F9786800F05FF97B6837
:1020A00000221A777B681B681B6903F01003102B52
:1020B00022D17B681B68DB6803F01003102B1BD157
:1020C0007B681B686FF010021A617B6808221A7720
:1020D0007B681B68DB6903F44073002B03D07868CE
:1020E00000F033F905E0786800F026F9786800F030
:1020F00035F97B6800221A777B681B681B6903F03F
:102100000103012B0ED17B681B68DB6803F0010320
:10211000012B07D17B681B686FF001021A61786898
:10212000FEF74CFE7B681B681B6903F08003802B65
:102130000ED17B681B68DB6803F08003802B07D11E
:102140007B681B686FF080021A61786800F077FA8C
:102150007B681B681B6903F04003402B0ED17B6832
:102160001B68DB6803F04003402B07D17B681B68CA
:102170006FF040021A61786800F0F9F87B681B681C
:102180001B6903F02003202B0ED17B681B68DB68E2
:1021900003F02003202B07D17B681B686FF020021F
:1021A0001A61786800F042FA00BF0837BD4680BD6A
:1021B00080B584B000AF786039607B6893F83C30BC
:1021C000012B01D10223B3E07B68012283F83C207C
:1021D0007B68022283F83D207B681B689B68FB605C
:1021E000FB6823F07703FB60FB6823F47F43FB600D
:1021F0007B681B68FA689A603B681B68B3F5005FF0
:102200003ED0B3F5005F00F28780B3F5805F00F049
:102210008580B3F5805F7FD8702B1AD0702B7BD868
:10222000602B50D0602B77D8502B3CD0502B73D8DC
:10223000402B58D0402B6FD8302B64D0302B6BD82C
:10224000202B60D0202B67D8002B5CD0102B5AD0CD
:1022500062E07B6818683B6899683B685A683B682D
:10226000DB6800F066F97B681B689B68FB60FB68B5
:1022700043F07703FB607B681B68FA689A604EE066
:102280007B6818683B6899683B685A683B68DB68FC
:1022900000F04FF97B681B689A687B681B6842F402
:1022A00080429A603BE07B6818683B6859683B68ED
:1022B000DB681A4600F0C6F87B681B685021184698
:1022C00000F01DF92BE07B6818683B6859683B6893
:1022D000DB681A4600F0E4F87B681B68602118464A
:1022E00000F00DF91BE07B6818683B6859683B6893
:1022F000DB681A4600F0A6F87B681B684021184688
:1023000000F0FDF80BE07B681A683B681B68194613
:10231000104600F0F4F802E000BF00E000BF7B6868
:10232000012283F83D207B68002283F83C200023B3
:1023300018461037BD4680BD80B483B000AF7860CA
:1023400000BF0C37BD4680BC704780B483B000AF7F
:10235000786000BF0C37BD4680BC704780B483B046
:1023600000AF786000BF0C37BD4680BC704780B4BA
:1023700083B000AF786000BF0C37BD4680BC7047AB
:1023800080B485B000AF786039607B681B68FB6003
:102390007B68294A93420BD07B68B3F1804F07D00A
:1023A0007B68264A934203D07B68254A934208D132
:1023B000FB6823F07003FB603B685B68FA681343BB
:1023C000FB607B681C4A93420BD07B68B3F1804F63
:1023D00007D07B68194A934203D07B68184A93421E
:1023E00008D1FB6823F44073FB603B68DB68FA6844
:1023F0001343FB60FB6823F080023B685B69134377
:10240000FB607B68FA681A603B689A687B68DA62EE
:102410003B681A687B689A627B68074A934203D1DB
:102420003B681A697B681A637B6801225A6100BFA6
:102430001437BD4680BC7047002C014000040040AA
:102440000008004080B487B000AFF860B9607A60DF
:10245000FB681B6A7B61FB681B6A23F00102FB6857
:102460001A62FB689B693B613B6923F0F0033B61A7
:102470007B681B013A6913433B617B6923F00A03C4
:102480007B617A69BB6813437B61FB683A699A6137
:10249000FB687A691A6200BF1C37BD4680BC704772
:1024A00080B487B000AFF860B9607A60FB681B6ADF
:1024B00023F01002FB681A62FB689B697B61FB6872
:1024C0001B6A3B617B6923F470437B617B681B0360
:1024D0007A6913437B613B6923F0A0033B61BB68CE
:1024E0001B013A6913433B61FB687A699A61FB6897
:1024F0003A691A6200BF1C37BD4680BC704780B481
:1025000085B000AF786039607B689B68FB60FB68D2
:1025100023F07003FB603A68FB68134343F0070342
:10252000FB607B68FA689A6000BF1437BD4680BCC8
:10253000704780B487B000AFF860B9607A603B60E4
:10254000FB689B687B617B6923F47F437B613B680D
:102550001A027B681A43BB6813437A6913437B6191
:10256000FB687A699A6000BF1C37BD4680BC704723
:1025700080B485B000AF786039607B6893F83C30F8
:10258000012B01D1022346E07B68012283F83C2025
:102590007B68022283F83D207B681B685B68FB60D8
:1025A0007B681B689B68BB60FB6823F07003FB6063
:1025B0003B681B68FA681343FB607B681B68FA681A
:1025C0005A607B681B68164A93420ED07B681B6872
:1025D000B3F1804F09D07B681B68124A934204D044
:1025E0007B681B68104A93420CD1BB6823F08003C0
:1025F000BB603B685B68BA681343BB607B681B6861
:10260000BA689A607B68012283F83D207B680022CB
:1026100083F83C20002318461437BD4680BC704721
:10262000002C0140000400400008004080B483B04A
:1026300000AF786000BF0C37BD4680BC704780B4E7
:1026400083B000AF786000BF0C37BD4680BC7047D8
:10265000014B1868704700BF0C00002070B50026C1
:102660000C4D0D4C641BA410A64209D100F0B2FF22
:1026700000260A4D0A4C641BA410A64205D170BD69
:1026800055F8043B98470136EEE755F8043B984768
:102690000136F2E758360008583600085836000868
:1026A0005C36000803460244934200D1704703F8A9
:1026B000011BF9E72DE9F8431F4680468946164677
:1026C00000F0A6F84D4B044693F900300D46013357
:1026D00015D032463B4630463946FEF78FF970B981
:1026E00042464B4640464946FEF788F90022002301
:1026F00048B130463946FEF74FF900287BD12046D5
:102700002946BDE8F88340464946FEF745F9E0B161
:102710000022002330463946FEF73EF900286AD1F0
:102720003046394600F039FE0028E8D00022002368
:1027300030463946FEF73AF90028E0D0FFF788FF27
:102740002123002403602E4DD9E72046294600F0BE
:1027500024FEA8BB4046494600F01FFE80B3304629
:10276000394600F01AFE58B322462B462046294629
:10277000FEF744F960B1FFF76BFF212300220360ED
:10278000002310461946FDF7C9FF04460D46B6E77B
:10279000FFF75EFF222300220360494600234046E4
:1027A000FEF704F9002448B13046394600F002FE35
:1027B00032463B46FEF7F0F80028C4D0114D9EE7A4
:1027C0000022002320462946FEF7E6F8002896D08E
:1027D0004046494600F0E1FD002890D03046394699
:1027E00000F0DBFD00288AD0FFF732FF222300240F
:1027F0000025036083E70024034D80E7700000207C
:102800000000F0FF0000F07F0000F03F000000003B
:102810002DE9F04F93B0CDE90223DDE9022626F041
:10282000004555EA02030746884600F0BF847E4B08
:1028300021F000449C428946824609DC03D178B9E4
:10284000A54202DD0CE09D4202DC9D420ED16AB140
:1028500004F1404404F5801454EA0A0300F0A6840D
:10286000724813B0BDE8F04F00F09EBDB9F1000F03
:1028700039DA6F4B9D4254DCA3F154739D4240F30F
:10288000A6842B15A3F2FF33142B0FDDC3F1340301
:1028900022FA03F101FA03F3934240F0988401F025
:1028A0000101C1F10203009382B15EE0002A5AD116
:1028B000C3F1140345FA03F101FA03F3AB4240F00C
:1028C000838401F00101C1F102030093594B9D4241
:1028D00030D1002E80F274843A4643460020554998
:1028E000FDF71CFF2FE000230093002A3DD14E4B43
:1028F0009D42EBD104F1404303F5801353EA0A03F0
:1029000000F054844C4B9C420DDD002E80F2548428
:102910004FF0000B4FF0000C5846614613B0BDE875
:10292000F08F0223E0E7002EF2DADDE902B303F1D3
:10293000004CF1E7B6F1804F08D13A46434638469D
:102940004146FDF7C1FD83468C46E5E73B4B9E4281
:102950000BD1B9F1000F08DB3846414613B0BDE892
:10296000F04F00F06BBC002300933846414600F066
:1029700011FD83468C46BAF1000F29D124B12D4BAD
:1029800029F040429A4223D1002E07DA5A46634684
:1029900000202849FDF7C2FE83468C46B9F1000F9E
:1029A000BADA009B04F1404404F58014234308D1B3
:1029B0005A46634658466146FDF7CEFB02460B4633
:1029C0008EE7009B012BA7D10CF100439C46A3E7A7
:1029D0004FEAD973013B0C930C9A009B134304D12B
:1029E0003A46434638464146E6E7154B9D4240F39A
:1029F000F98003F104739D420F4B09DD9C420CDC0E
:102A0000002E85DA06A3D3E900231046194698E77D
:102A10009C42F5DB074B9C4214DD002EF2DC77E78D
:102A20009C7500883CE4377E0000F07F103600087B
:102A3000FFFF3F430000F03FFFFFEF3F0000E03F9C
:102A40000000E041614600225846614BFDF784FBDF
:102A500055A3D3E9002304460D46FDF735FD54A3E5
:102A6000D3E9002306460F4620462946FDF72CFDF4
:102A7000002282468B4620462946564BFDF724FD10
:102A800002460B464CA1D1E90001FDF765FB224649
:102A90002B46FDF719FD02460B4600204E49FDF777
:102AA0005BFB22462B468046894620462946FDF799
:102AB0000BFD02460B4640464946FDF705FD40A387
:102AC000D3E90023FDF700FD02460B465046594668
:102AD000FDF742FB4FF0000A02460B4604460D4646
:102AE00030463946FDF73AFB32463B4650468B4668
:102AF000FDF732FB02460B4620462946FDF72CFB2C
:102B0000DDE90267009B0C9A013B13434FF000067E
:102B10004FF000020CBF314B2D4B04460D46DDE952
:102B20000201CDE9002332463B46FDF715FB524634
:102B30005B46FDF7C9FCDDE9022380468946204655
:102B40002946FDF7C1FC02460B4640464946FDF7C3
:102B500005FB32463B468046894650465946FDF7BE
:102B6000B3FC04460D460B46024649464046CDE9B5
:102B70000245FDF7F3FA1A4B824699420F460E467C
:102B800040F3ED8201F13F4303F5E003034300F01E
:102B9000E7810DA3D3E90023DDE90001FDF794FCF3
:102BA00009A3D3E90023CCE6000000604715F73FF6
:102BB00044DF5DF80BAE543E555555555555D53F40
:102BC000FE822B654715F73F9C7500883CE4377EF5
:102BD0000000F03F0000D03F0000E03F0000F0BFE9
:102BE000FFFF8F40D44B002209EA030343B9584644
:102BF0006146D24BFDF768FC6FF0340283460C4609
:102C00002315A3F2FF3313440B93CD4BC4F31304EA
:102C100044F07F559C4245F4401508DDC94B9C4269
:102C200040F39C810B9BA5F5801501330B93002687
:102C3000F3000D93C44B584603EBC603D3E90034AD
:102C400029461A46CDE908342346FDF785FADA46C7
:102C50002B465246CDE90E01DDE90801FDF77EFA6B
:102C600002460B460020B949FDF758FD02460B46C7
:102C7000CDE91001DDE90E01FDF726FCCDE90601E5
:102C8000DDE90634CDE9043400230022AB466D10A3
:102C900045F00055049305F50025DDE9048905EBB1
:102CA00086434046494614461D46FDF70DFC024644
:102CB0000B46DDE90E01FDF74FFADDE90823064674
:102CC0000F4620462946FDF747FA02460B46504676
:102CD0005946FDF741FA42464B46FDF7F5FB0246E1
:102CE0000B4630463946FDF737FADDE91023FDF78C
:102CF000EBFBDDE90623CDE9080110461946FDF797
:102D0000E3FB7BA3D3E9002304460D46FDF7DCFB80
:102D100079A3D3E90023FDF721FA22462B46FDF7DC
:102D2000D3FB77A3D3E90023FDF718FA22462B46FD
:102D3000FDF7CAFB74A3D3E90023FDF70FFA22467F
:102D40002B46FDF7C1FB72A3D3E90023FDF706FA7A
:102D500022462B46FDF7B8FB6FA3D3E90023FDF70E
:102D6000FDF9224606460F462B4620462946FDF72A
:102D7000ABFB02460B4630463946FDF7A5FB044641
:102D80000D46DDE9060142464B46FDF7E7F9DDE970
:102D90000823FDF799FB22462B46FDF7DFF9424653
:102DA00006460F464B4640464946FDF78DFB00223E
:102DB000674B82468B46FDF7D1F932463B46FDF71D
:102DC000CDF9049C0D4622460B4640464946FDF788
:102DD0007BFB002280468946204629465C4BFDF756
:102DE000BBF952465B46FDF7B7F902460B46304643
:102DF0003946FDF7B1F9DDE90623FDF765FB22460B
:102E000006460F46DDE908012B46FDF75DFB02464D
:102E10000B4630463946FDF7A1F906460F460246F5
:102E20000B4640464946FDF799F93DA3D3E90023F7
:102E3000049C0D462046FDF747FB42464B46CDE934
:102E4000060120462946FDF787F902460B46304623
:102E50003946FDF781F934A3D3E90023FDF734FBAC
:102E600033A3D3E9002306460F4620462946FDF743
:102E70002BFB02460B4630463946FDF76FF90D9A9B
:102E8000344B1344D3E90023FDF768F980460B98CF
:102E90008946FDF7AFFA04460D460D9A2E4BDDE943
:102EA00006011344D3E9006742464B46FDF756F945
:102EB00032463B46FDF752F922462B46FDF74EF9C6
:102EC000DDF810A022462B4650468B46FDF744F90C
:102ED00032463B46FDF740F9DDE90623FDF73CF9B4
:102EE00002460B464046494608E600BFAFF3008065
:102EF000EF4E454A287ECA3F65DBC9934A86CD3FDF
:102F000001411DA96074D13F4D268F515555D53FC4
:102F1000FFAB6FDBB66DDB3F033333333333E33F5C
:102F2000000000E009C7EE3FFD033ADC09C7EE3FB1
:102F3000F5015B14E02F3EBE0000F07F000040432F
:102F40008E98030079B60B00183600080000F03F99
:102F5000000008403836000828360008012667E6D9
:102F60009DA3D3E9002340464946FDF7F7F82246E2
:102F7000CDE904012B4650463946FDF7EDF80246EF
:102F80000B46DDE90401FDF72FFD00287FF401AEBB
:102F9000A54A26F00043934240F303814FF4801A80
:102FA00000201B15A3F2FE334AFA03F33344C3F3A4
:102FB0000A529E4FA2F2FF321741C3F3130A23EACB
:102FC0000701C2F114024AF4801A0B464AFA02FAC7
:102FD000002E024629462046B8BFCAF1000AFDF776
:102FE000BBF8CDE90201DDE90201002442464B466F
:102FF000FDF7B4F87AA3D3E9002320460D46FDF788
:1030000063FADDE9022306460F4620462946FDF70E
:10301000A3F802460B4640464946FDF79DF872A3C9
:10302000D3E90023FDF750FA71A3D3E900238046CA
:10303000894620462946FDF747FA02460B46404698
:103040004946FDF78BF804460D4602460B463046CE
:103050003946FDF783F832463B4680468946FDF700
:103060007BF802460B4620462946FDF775F8424696
:1030700006460F464B4640464946FDF725FA5EA3F5
:10308000D3E9002304460D46FDF71EFA5CA3D3E9FD
:103090000023FDF761F822462B46FDF715FA5AA3E7
:1030A000D3E90023FDF75AF822462B46FDF70CFA28
:1030B00057A3D3E90023FDF74FF822462B46FDF72F
:1030C00003FA55A3D3E90023FDF748F822462B461F
:1030D000FDF7FAF902460B4640464946FDF73CF833
:1030E00004460D4602460B4640464946FDF7ECF9BC
:1030F0000022CDE902014FF0804320462946FDF72A
:103100002BF802460B46DDE90201FDF707FB3246CC
:1031100004460D463B4640464946FDF7D5F9324642
:103120003B46FDF71BF802460B4620462946FDF7B5
:1031300013F842464B46FDF70FF802460B460020B7
:103140003B49FDF709F801EB0A54B4F5801F2BDA6F
:10315000524600F0B9F9DDE90023FFF7F2BB354B29
:1031600021F000479F427FF713AF334B0B440343DB
:103170000BD02BA3D3E90023DDE90001FDF7A4F96F
:1031800027A3D3E90023FFF7DCBB22462B46FCF73D
:10319000E3FF42464B46FDF71DFC00283FF4F8AE26
:1031A000E7E74FF0000A1EE72146D4E74FF0000B97
:1031B000DFF87CC0FFF7B0BBDDE902BCFFF7ACBBBA
:1031C00038464146FFF7BFBB0092FFF77FBB0023A5
:1031D000FFF769BBAFF30080FE822B654715973C74
:1031E00000000000432EE63FEF39FAFE422EE63F94
:1031F000396CA80C615C20BED0A4BE726937663EF3
:10320000F16BD2C541BDBB3E2CDE25AF6A56113FE6
:1032100093BDBE166CC1663F3E5555555555C53FCD
:1032200059F3F8C21F6EA5010000E03FFFFF0F0039
:103230000000F03FFFCB904000346F3FDFF850C1FB
:103240002DE9F0413CEA010C0B4606460D460A46C4
:10325000074604460ED10246FDF736F902460B46F4
:1032600030462946FCF77AFF06460D463046294689
:10327000BDE8F08100290DDC21F0004C5CEA070775
:10328000F4D039B10246FCF767FF02460B46FDF762
:1032900045FAE9E7121574D00020D507C3F31303EC
:1032A00043F480115EBFE30F640003EB4101E30FC1
:1032B000A2F2FF3603EB4103162501464FF400123C
:1032C000761064008F189F42DEBFDB1BB918801890
:1032D0005B00013D03EBD4734FEA52024FEA440412
:1032E000F0D12A464FF0200E4FF000478B4207EBFB
:1032F000050C02DC13D1A44511D8BCF1000F0CEB76
:10330000070543DA002D41DB01F101085B1A414654
:10331000A44588BF03F1FF33A4EB0C043A445B00DF
:10332000BEF1010E03EBD4734FEA57074FEA440492
:10333000DCD1234306D0541C0BBF7246013201304E
:1033400022F001024310C1074FEA520203F17F53FA
:1033500003F5001348BF42F00042104603EB06514C
:1033600082E7E30A15396405002BFAD0DE020AD59C
:10337000C2F1200024FA00F0551E944003434A1B7A
:103380008AE71146F0E75B000132EFE78846BDE7C8
:103390000000F07F21F00041704741F0004000F54F
:1033A0008010C00F7047000000200149704700BF27
:1033B0000000F87FC1F30A5CF7B5ACF2FF37132FBA
:1033C00002460B460C4605464FEAD17659DC002FE3
:1033D0002ADA21F00041014322D0C3F31301014353
:1033E0004D420D4336495C0C2D0B05F40025640459
:1033F00001EBC60145EA0403D1E900452046294610
:10340000FCF7ACFECDE90001DDE900012B462246C8
:10341000FCF7A2FE21F0004343EAC67102460B46C8
:103420001046194603B0F0BD2649394103EA0100B0
:103430001043F5D04B0804EA510152EA01050CD0C3
:1034400024EA03034FF48024132F0CBF4FF00045F0
:10345000002544FA07F743EA07041949234601EB1C
:10346000C6062A46D6E9004520462946FCF776FEE0
:10347000CDE90001DDE9000122462B46FCF76CFE98
:10348000CCE7332F05DDB7F5806FC9D1FCF766FEB9
:10349000C4E74FF0FF31ACF2134C21FA0CF10842B3
:1034A000BED010EA510218BF4FF080454FEA5103D9
:1034B0001EBF20EA030345FA0CFC43EA0C05CCE7E7
:1034C00048360008FFFF0F00F8B5C1F30A5604465E
:1034D0000D4617460B4696B921F00043034339D0F9
:1034E000354B0022FCF7F0FF344B04469F420D465B
:1034F0000FDA2DA3D3E90023FCF7E6FF06E040F244
:10350000FF7296420AD10246FCF728FE04460D4699
:1035100020E00B46C1F30A51A1F1360640F2FE72DB
:10352000B91991420EDD22A3D3E9002305F000442E
:1035300044F0FC4141F45F1141F41051204841F046
:103540003C01D9E7002908DD23F0FF4323F4E00321
:1035500043EA015520462946F8BD11F1350F16DA28
:103560004CF250339F424FEAD57308DD154C144896
:1035700063F3DF740EA3D3E900232146BCE7124CAA
:10358000124863F3DF7408A3D3E90023F5E723F0BF
:10359000FF43363123F4E00343EA01552046294630
:1035A00000220B4BA8E700BF59F3F8C21F6EA5011C
:1035B0009C7500883CE4377E00005043B03CFFFF20
:1035C0009C7500883CE4377E1F6EA50159F3F8C254
:1035D0000000903CF8B500BFF8BC08BC9E467047A0
:0C35E000F8B500BFF8BC08BC9E46704760
:1035F00002030405060708090A0B0C0D0E0F101034
:103600000000000000000000010203040607080992
:103610000000000000000000000000000000F03F7B
:10362000000000000000F83F000000000000000063
:103630000000004003B8E23F00000000000000006E
:1036400006D0CF43EBFD4C3E0000000000003043AD
:0836500000000000000030C37F
:043658003501000830
:04365C001101000850
:103660000024F40010000000010000001000002001
:10367000000000000000000000000000000000004A
:10368000000000000000000000000000000000003A
:10369000000000000000000000000000000000002A
:1036A000000000000000000000000000000000001A
:1036B000000000000000000000000000000000000A
:1036C00000000000000000000000000000000000FA
:0436D000FF000000F7
:0400000508000FF9E7
:00000001FF
